{
  "contractName": "Coinbet",
  "abi": [
    {
      "constant": true,
      "inputs": [
        {
          "name": "",
          "type": "address"
        },
        {
          "name": "",
          "type": "uint256"
        }
      ],
      "name": "roundsBetsByUser",
      "outputs": [
        {
          "name": "user",
          "type": "address"
        },
        {
          "name": "predictedPriceDollarCents",
          "type": "uint32"
        },
        {
          "name": "timestamp",
          "type": "uint256"
        }
      ],
      "payable": false,
      "stateMutability": "view",
      "type": "function"
    },
    {
      "constant": true,
      "inputs": [
        {
          "name": "",
          "type": "uint256"
        }
      ],
      "name": "rounds",
      "outputs": [
        {
          "name": "startTimestamp",
          "type": "uint256"
        },
        {
          "name": "endTimestamp",
          "type": "uint256"
        },
        {
          "name": "resolutionTimestamp",
          "type": "uint256"
        },
        {
          "name": "betAmount",
          "type": "uint256"
        },
        {
          "name": "coin",
          "type": "uint8"
        },
        {
          "name": "organizer",
          "type": "address"
        },
        {
          "name": "isOpen",
          "type": "bool"
        }
      ],
      "payable": false,
      "stateMutability": "view",
      "type": "function"
    },
    {
      "constant": true,
      "inputs": [
        {
          "name": "",
          "type": "uint256"
        }
      ],
      "name": "roundsIds",
      "outputs": [
        {
          "name": "",
          "type": "uint256"
        }
      ],
      "payable": false,
      "stateMutability": "view",
      "type": "function"
    },
    {
      "inputs": [],
      "payable": false,
      "stateMutability": "nonpayable",
      "type": "constructor"
    },
    {
      "payable": false,
      "stateMutability": "nonpayable",
      "type": "fallback"
    },
    {
      "anonymous": false,
      "inputs": [
        {
          "indexed": false,
          "name": "roundId",
          "type": "uint256"
        },
        {
          "indexed": false,
          "name": "organizer",
          "type": "address"
        }
      ],
      "name": "BetRoundCreated",
      "type": "event"
    },
    {
      "anonymous": false,
      "inputs": [
        {
          "indexed": false,
          "name": "roundId",
          "type": "uint256"
        },
        {
          "indexed": false,
          "name": "winner",
          "type": "address"
        },
        {
          "indexed": false,
          "name": "winnerReward",
          "type": "uint256"
        }
      ],
      "name": "BetRoundWinner",
      "type": "event"
    },
    {
      "anonymous": false,
      "inputs": [
        {
          "indexed": false,
          "name": "roundId",
          "type": "uint256"
        },
        {
          "indexed": false,
          "name": "user",
          "type": "address"
        },
        {
          "indexed": false,
          "name": "predictedPriceDollarCents",
          "type": "uint32"
        }
      ],
      "name": "BetPlaced",
      "type": "event"
    },
    {
      "constant": false,
      "inputs": [
        {
          "name": "_startTimestamp",
          "type": "uint256"
        },
        {
          "name": "_endTimestamp",
          "type": "uint256"
        },
        {
          "name": "_resolutionTimestamp",
          "type": "uint256"
        },
        {
          "name": "_betAmount",
          "type": "uint256"
        },
        {
          "name": "_coin",
          "type": "uint8"
        }
      ],
      "name": "createBetRound",
      "outputs": [
        {
          "name": "roundId",
          "type": "uint256"
        }
      ],
      "payable": false,
      "stateMutability": "nonpayable",
      "type": "function"
    },
    {
      "constant": false,
      "inputs": [
        {
          "name": "_roundId",
          "type": "uint256"
        },
        {
          "name": "_finalBetRoundCoinPriceDollarCents",
          "type": "uint32"
        }
      ],
      "name": "decideBetRoundWinner",
      "outputs": [],
      "payable": false,
      "stateMutability": "nonpayable",
      "type": "function"
    },
    {
      "constant": false,
      "inputs": [
        {
          "name": "_roundId",
          "type": "uint256"
        },
        {
          "name": "_predictedPriceDollarCents",
          "type": "uint32"
        }
      ],
      "name": "bet",
      "outputs": [
        {
          "name": "success",
          "type": "bool"
        }
      ],
      "payable": true,
      "stateMutability": "payable",
      "type": "function"
    },
    {
      "constant": true,
      "inputs": [],
      "name": "getBalance",
      "outputs": [
        {
          "name": "balance",
          "type": "uint256"
        }
      ],
      "payable": false,
      "stateMutability": "view",
      "type": "function"
    },
    {
      "constant": true,
      "inputs": [
        {
          "name": "_roundId",
          "type": "uint256"
        }
      ],
      "name": "getBetRound",
      "outputs": [
        {
          "name": "startTimestamp",
          "type": "uint256"
        },
        {
          "name": "endTimestamp",
          "type": "uint256"
        },
        {
          "name": "resolutionTimestamp",
          "type": "uint256"
        },
        {
          "name": "betAmount",
          "type": "uint256"
        },
        {
          "name": "coin",
          "type": "uint8"
        }
      ],
      "payable": false,
      "stateMutability": "view",
      "type": "function"
    }
  ],
  "bytecode": "0x6060604052341561000f57600080fd5b336000806101000a81548173ffffffffffffffffffffffffffffffffffffffff021916908373ffffffffffffffffffffffffffffffffffffffff1602179055506113b28061005e6000396000f30060606040526004361061008e576000357c0100000000000000000000000000000000000000000000000000000000900463ffffffff16806312065fe01461009b5780635aca7419146100c457806378b621ac146101225780637fdb9146146101615780638c65c81f146101fd578063bf14ca841461029c578063c1ef685e146102f5578063ea5ac3781461032c575b341561009957600080fd5b005b34156100a657600080fd5b6100ae61035e565b6040518082815260200191505060405180910390f35b34156100cf57600080fd5b61010c600480803590602001909190803590602001909190803590602001909190803590602001909190803560ff1690602001909190505061037d565b6040518082815260200191505060405180910390f35b610147600480803590602001909190803563ffffffff16906020019091905050610627565b604051808215151515815260200191505060405180910390f35b341561016c57600080fd5b6101a1600480803573ffffffffffffffffffffffffffffffffffffffff16906020019091908035906020019091905050610967565b604051808473ffffffffffffffffffffffffffffffffffffffff1673ffffffffffffffffffffffffffffffffffffffff1681526020018363ffffffff1663ffffffff168152602001828152602001935050505060405180910390f35b341561020857600080fd5b61021e60048080359060200190919050506109ce565b6040518088815260200187815260200186815260200185815260200184600281111561024657fe5b60ff1681526020018373ffffffffffffffffffffffffffffffffffffffff1673ffffffffffffffffffffffffffffffffffffffff1681526020018215151515815260200197505050505050505060405180910390f35b34156102a757600080fd5b6102bd6004808035906020019091905050610a59565b604051808681526020018581526020018481526020018381526020018260ff1660ff1681526020019550505050505060405180910390f35b341561030057600080fd5b6103166004808035906020019091905050610ad6565b6040518082815260200191505060405180910390f35b341561033757600080fd5b61035c600480803590602001909190803563ffffffff16906020019091905050610afa565b005b60003073ffffffffffffffffffffffffffffffffffffffff1631905090565b600080428711151561038e57600080fd5b868611151561039c57600080fd5b62093a808601851115156103af57600080fd5b600060028111156103bc57fe5b60ff168360ff1614806103e05750600160028111156103d757fe5b60ff168360ff16145b806103fb57506002808111156103f257fe5b60ff168360ff16145b151561040657600080fd5b662386f26fc100008411151561041b57600080fd5b6001805480919060010161042f9190611113565b915060018281548110151561044057fe5b90600052602060002090600702019050868160000181905550858160010181905550848160020181905550838160030181905550338160040160016101000a81548173ffffffffffffffffffffffffffffffffffffffff021916908373ffffffffffffffffffffffffffffffffffffffff16021790555060018160060160006101000a81548160ff021916908315150217905550600280548060010182816104e89190611145565b9160005260206000209001600084909190915055506000600281111561050a57fe5b60ff168360ff1614156105425760008160040160006101000a81548160ff0219169083600281111561053857fe5b02179055506105af565b6001600281111561054f57fe5b60ff168360ff1614156105875760018160040160006101000a81548160ff0219169083600281111561057d57fe5b02179055506105ae565b60028160040160006101000a81548160ff021916908360028111156105a857fe5b02179055505b5b7f3db13eb9733fdd539efb2fe6e94f6cccc187bc952e56fd79ef9d72aea0f09f658233604051808381526020018273ffffffffffffffffffffffffffffffffffffffff1673ffffffffffffffffffffffffffffffffffffffff1681526020019250505060405180910390a18191505095945050505050565b60008060008060018681548110151561063c57fe5b906000526020600020906007020192506000836003015411151561065c57fe5b600115158360060160009054906101000a900460ff16151514151561067d57fe5b3373ffffffffffffffffffffffffffffffffffffffff16600360003373ffffffffffffffffffffffffffffffffffffffff1673ffffffffffffffffffffffffffffffffffffffff168152602001908152602001600020600088815260200190815260200160002060000160009054906101000a900473ffffffffffffffffffffffffffffffffffffffff1673ffffffffffffffffffffffffffffffffffffffff161415151561072857fe5b82600301543414151561073757fe5b82600501805480919060010161074d9190611171565b9150826005018281548110151561076057fe5b90600052602060002090600202019050338160000160006101000a81548173ffffffffffffffffffffffffffffffffffffffff021916908373ffffffffffffffffffffffffffffffffffffffff160217905550848160000160146101000a81548163ffffffff021916908363ffffffff16021790555042816001018190555080600360003373ffffffffffffffffffffffffffffffffffffffff1673ffffffffffffffffffffffffffffffffffffffff16815260200190815260200160002060008881526020019081526020016000206000820160009054906101000a900473ffffffffffffffffffffffffffffffffffffffff168160000160006101000a81548173ffffffffffffffffffffffffffffffffffffffff021916908373ffffffffffffffffffffffffffffffffffffffff1602179055506000820160149054906101000a900463ffffffff168160000160146101000a81548163ffffffff021916908363ffffffff160217905550600182015481600101559050507fbc6f1f1e8f09c006b7ddc81daa122649b4f9271253590c6e129a97830c1899f9863387604051808481526020018373ffffffffffffffffffffffffffffffffffffffff1673ffffffffffffffffffffffffffffffffffffffff1681526020018263ffffffff1663ffffffff168152602001935050505060405180910390a16001935050505092915050565b6003602052816000526040600020602052806000526040600020600091509150508060000160009054906101000a900473ffffffffffffffffffffffffffffffffffffffff16908060000160149054906101000a900463ffffffff16908060010154905083565b6001818154811015156109dd57fe5b90600052602060002090600702016000915090508060000154908060010154908060020154908060030154908060040160009054906101000a900460ff16908060040160019054906101000a900473ffffffffffffffffffffffffffffffffffffffff16908060060160009054906101000a900460ff16905087565b600080600080600080600187815481101515610a7157fe5b9060005260206000209060070201905060008160030154111515610a9157fe5b80600001548160010154826002015483600301548460040160009054906101000a900460ff166002811115610ac257fe5b955095509550955095505091939590929450565b600281815481101515610ae557fe5b90600052602060002090016000915090505481565b610b026111a3565b6000610b0c611212565b600080600080600080600080600060018e815481101515610b2957fe5b90600052602060002090600702016101006040519081016040529081600082015481526020016001820154815260200160028201548152602001600382015481526020016004820160009054906101000a900460ff166002811115610b8a57fe5b6002811115610b9557fe5b81526020016004820160019054906101000a900473ffffffffffffffffffffffffffffffffffffffff1673ffffffffffffffffffffffffffffffffffffffff1673ffffffffffffffffffffffffffffffffffffffff16815260200160058201805480602002602001604051908101604052809291908181526020016000905b82821015610ccd5783829060005260206000209060020201606060405190810160405290816000820160009054906101000a900473ffffffffffffffffffffffffffffffffffffffff1673ffffffffffffffffffffffffffffffffffffffff1673ffffffffffffffffffffffffffffffffffffffff1681526020016000820160149054906101000a900463ffffffff1663ffffffff1663ffffffff16815260200160018201548152505081526020019060010190610c14565b5050505081526020016006820160009054906101000a900460ff1615151515815250509b5060008c60600151111515610d0257fe5b8b6040015142111515610d1157fe5b600115158c60e001511515141515610d2557fe5b6000809054906101000a900473ffffffffffffffffffffffffffffffffffffffff1673ffffffffffffffffffffffffffffffffffffffff163373ffffffffffffffffffffffffffffffffffffffff16141515610d7d57fe5b600060018f815481101515610d8e57fe5b9060005260206000209060070201600501805490501415610de757600060018f815481101515610dba57fe5b906000526020600020906007020160060160006101000a81548160ff021916908315150217905550611103565b63ffffffff9a508b60c0015151604051805910610e015750595b9080825280602002602001820160405250995060009850600097505b8b60c0015151881015610f4b578b60c0015188815181101515610e3c57fe5b90602001906020020151602001519650600095508c63ffffffff168763ffffffff161115610e6e578c87039550610e74565b868d0395505b8a63ffffffff168663ffffffff161015610eb3578b60c0015151604051805910610e9b5750595b90808252806020026020018201604052509950600098505b8a63ffffffff168663ffffffff16111515610f3e57859a508b60c0015188815181101515610edd57fe5b90602001906020020151600001518a89815181101515610ef957fe5b9060200190602002019073ffffffffffffffffffffffffffffffffffffffff16908173ffffffffffffffffffffffffffffffffffffffff168152505088806001019950505b8780600101985050610e1d565b8b606001518c60c0015151029450606485811515610f6557fe5b04935083850392508883811515610f7857fe5b049150600060018f815481101515610f8c57fe5b906000526020600020906007020160060160006101000a81548160ff021916908315150217905550600090505b895181101561110257600073ffffffffffffffffffffffffffffffffffffffff168a82815181101515610fe857fe5b9060200190602002015173ffffffffffffffffffffffffffffffffffffffff161415611013576110f5565b898181518110151561102157fe5b9060200190602002015173ffffffffffffffffffffffffffffffffffffffff166108fc839081150290604051600060405180830381858888f19350505050151561106a57600080fd5b7f7e37b2850b3b7b353a2b70b41c5244cdf7b46f710c0748f9d9dacbd63251383b8e8b8381518110151561109a57fe5b9060200190602002015184604051808481526020018373ffffffffffffffffffffffffffffffffffffffff1673ffffffffffffffffffffffffffffffffffffffff168152602001828152602001935050505060405180910390a15b8080600101915050610fb9565b5b5050505050505050505050505050565b8154818355818115116111405760070281600702836000526020600020918201910161113f9190611226565b5b505050565b81548183558181151161116c5781836000526020600020918201910161116b91906112c4565b5b505050565b81548183558181151161119e5760020281600202836000526020600020918201910161119d91906112e9565b5b505050565b6101006040519081016040528060008152602001600081526020016000815260200160008152602001600060028111156111d957fe5b8152602001600073ffffffffffffffffffffffffffffffffffffffff16815260200161120361134e565b81526020016000151581525090565b602060405190810160405280600081525090565b6112c191905b808211156112bd576000808201600090556001820160009055600282016000905560038201600090556004820160006101000a81549060ff02191690556004820160016101000a81549073ffffffffffffffffffffffffffffffffffffffff02191690556005820160006112a09190611362565b6006820160006101000a81549060ff02191690555060070161122c565b5090565b90565b6112e691905b808211156112e25760008160009055506001016112ca565b5090565b90565b61134b91905b8082111561134757600080820160006101000a81549073ffffffffffffffffffffffffffffffffffffffff02191690556000820160146101000a81549063ffffffff02191690556001820160009055506002016112ef565b5090565b90565b602060405190810160405280600081525090565b508054600082556002029060005260206000209081019061138391906112e9565b505600a165627a7a72305820e0c8a811a23b2f77913bf0008fd08834e50b038f9cb897cfcc831ac1e7dd5a0d0029",
  "source": "pragma solidity ^0.4.19;\n\ncontract Coinbet {\n    /**\n     * Do NOT shuffle these values as businest logic is based on their order.\n     *\n     * BTC uint value is 0\n     * ETH uint value is 1\n     * XRP uint value is 2\n     */\n    enum Coin {BTC, ETH, XRP}\n\n    struct Bet {\n        /**\n         * The address of the user betting.\n         */\n        address user;\n\n        /**\n         * The user's predicted coin's price defined in dollar $ cents.\n         */\n        uint32 predictedPriceDollarCents;\n\n        /**\n         * Timestamp of the bet.\n         */\n        uint timestamp;\n    }\n\n    struct BetRound {\n        /**\n         * Defines when the betting period will start.\n         */\n        uint startTimestamp;\n\n        /**\n         * Defines until when will be possible to place the last bet.\n         */\n        uint endTimestamp;\n\n        /**\n         * Defines the time the smart contract should decide the winner based\n         * on the closest bet.\n         */\n        uint resolutionTimestamp;\n\n        /**\n         * Defines the bet amount in Wei necessary to participate.\n         */\n        uint betAmount;\n\n        /**\n         * Defines the coin of which value the participants will be betting on.\n         */\n        Coin coin;\n\n        address organizer;\n\n        Bet[] bets;\n\n        /**\n         * Defines whenever the BetRound is still in progress, open for bets.\n         */\n        bool isOpen;\n    }\n\n    address owner;\n    BetRound[] public rounds;\n    uint[] public roundsIds;\n\n    /**\n     * Pointer between an address and rounds bets.\n     *\n     * An address can have only 1 bet per round.\n     */\n    mapping(address => mapping(uint => Bet)) public roundsBetsByUser;\n\n    event BetRoundCreated(uint roundId, address organizer);\n    event BetRoundWinner(uint roundId, address winner, uint winnerReward);\n    event BetPlaced(uint roundId, address user, uint32 predictedPriceDollarCents);\n\n    function Coinbet() public {\n        owner = msg.sender;\n    }\n\n    function createBetRound(\n        uint _startTimestamp,\n        uint _endTimestamp,\n        uint _resolutionTimestamp,\n        uint _betAmount,\n        uint8 _coin\n    ) public returns (uint roundId) {\n        // Validate betting range\n        require(_startTimestamp > now);\n        require(_endTimestamp > _startTimestamp);\n        // Betting period must end at least 7 days before the winner resolution\n        // as it doesn't make sense to do ad-hoc bets as the last better has the\n        // highest chance of guessing the price\n        require(_resolutionTimestamp > _endTimestamp + 7 days);\n        require(_coin == uint8(Coin.BTC) || _coin == uint8(Coin.ETH) || _coin == uint8(Coin.XRP));\n        // Buy in must be higher than 0.01 ETH in Wei\n        require(_betAmount > 10000000000000000);\n\n        roundId = rounds.length++;\n        BetRound storage round = rounds[roundId];\n        round.startTimestamp = _startTimestamp;\n        round.endTimestamp = _endTimestamp;\n        round.resolutionTimestamp = _resolutionTimestamp;\n        round.betAmount = _betAmount;\n        round.organizer = msg.sender;\n        round.isOpen = true;\n\n        roundsIds.push(roundId);\n\n        if (_coin == uint8(Coin.BTC)) {\n            round.coin = Coin.BTC;\n        } else if (_coin == uint8(Coin.ETH)) {\n            round.coin = Coin.ETH;\n        } else {\n            round.coin = Coin.XRP;\n        }\n\n        BetRoundCreated(roundId, msg.sender);\n\n        return roundId;\n    }\n\n    /**\n     * Currently only the contract owner can close the BetRound and decide\n     * the winner but that's not really in a \"blockchain spirit\" of doing things.\n     *\n     * A more advanced security alternative should be implemented where a system\n     * can close the bet round automatically and take the price directly\n     * from one of the exchanges.\n     */\n    function decideBetRoundWinner(\n        uint _roundId,\n        uint32 _finalBetRoundCoinPriceDollarCents\n    ) public {\n        BetRound memory betRound = rounds[_roundId];\n\n        // BetRound was not found as the betAmount must be set and be greater than 0\n        assert(betRound.betAmount > 0);\n        // Is it already possible to finalize the BetRound?\n        assert(now > betRound.resolutionTimestamp);\n        // BetRound must be open\n        assert(betRound.isOpen == true);\n        // Only contract owner can choose a winner for now @todo\n        assert(msg.sender == owner);\n        // There were no bets, closing BetRound without choosing the winner!\n        if (rounds[_roundId].bets.length == 0) {\n            rounds[_roundId].isOpen = false;\n\n            return;\n        }\n\n        uint32 closestBetPrice = 2 ** 32 - 1;\n        address[] memory winners = new address[](betRound.bets.length);\n        uint winnersCount = 0;\n\n        for (uint i = 0; i < betRound.bets.length; i++) {\n            uint32 betPrice = betRound.bets[i].predictedPriceDollarCents;\n            uint32 betPriceDiff = 0;\n\n            if (betPrice > _finalBetRoundCoinPriceDollarCents) {\n                betPriceDiff = betPrice - _finalBetRoundCoinPriceDollarCents;\n            } else {\n                betPriceDiff = _finalBetRoundCoinPriceDollarCents - betPrice;\n            }\n\n            if (betPriceDiff < closestBetPrice) {\n                // We have a new winner, reset the old array of winners.\n                // This is done because maybe two people bet the same price and in\n                // such a case we want to add the current bet.user to the list instead\n                // of resetting it\n                winners = new address[](betRound.bets.length);\n                winnersCount = 0;\n            }\n\n            if (betPriceDiff <= closestBetPrice) {\n                closestBetPrice = betPriceDiff;\n                winners[i] = betRound.bets[i].user;\n                winnersCount++;\n            }\n        }\n\n        uint betRoundPricePool = betRound.bets.length * betRound.betAmount;\n        // 1% fee goes to the BetRound organizer (contract owner)\n        uint betRoundOrganizerFee = betRoundPricePool / 100;\n        uint betRoundPricePoolAfterFee = betRoundPricePool - betRoundOrganizerFee;\n        uint userReward = betRoundPricePoolAfterFee / winnersCount;\n\n        // Close the BetRound before transferring the user reward to prevent \"re-entrancy\"\n        rounds[_roundId].isOpen = false;\n\n        // Transfer user rewards!\n        for (uint wIndex = 0; wIndex < winners.length; wIndex++) {\n            if (winners[wIndex] == address(0)) {\n                continue;\n            }\n\n            winners[wIndex].transfer(userReward);\n\n            BetRoundWinner(_roundId, winners[wIndex], userReward);\n        }\n    }\n\n    function bet(\n        uint _roundId,\n        uint32 _predictedPriceDollarCents\n    ) public payable returns (bool success) {\n        BetRound storage betRound = rounds[_roundId];\n\n        // BetRound was not found as the betAmount must be set and be greater than 0\n        assert(betRound.betAmount > 0);\n        // BetRound must be open for bets\n        assert(betRound.isOpen == true);\n        // User can only bet once in a round\n        assert(roundsBetsByUser[msg.sender][_roundId].user != msg.sender);\n        // User must send the required betting round buy in\n        assert(msg.value == betRound.betAmount);\n\n        uint myBetId = betRound.bets.length++;\n        Bet storage myBed = betRound.bets[myBetId];\n        myBed.user = msg.sender;\n        myBed.predictedPriceDollarCents = _predictedPriceDollarCents;\n        myBed.timestamp = now;\n\n        roundsBetsByUser[msg.sender][_roundId] = myBed;\n\n        BetPlaced(_roundId, msg.sender, _predictedPriceDollarCents);\n\n        return true;\n    }\n\n    function getBalance() view public returns (uint balance) {\n        return this.balance;\n    }\n\n    function getBetRound(uint _roundId) view public returns (\n        uint startTimestamp,\n        uint endTimestamp,\n        uint resolutionTimestamp,\n        uint betAmount,\n        uint8 coin\n    ) {\n        BetRound storage betRound = rounds[_roundId];\n\n        // BetRound was not found as the betAmount must be set and be greater than 0\n        assert(betRound.betAmount > 0);\n\n        return (\n            betRound.startTimestamp,\n            betRound.endTimestamp,\n            betRound.resolutionTimestamp,\n            betRound.betAmount,\n            uint8(betRound.coin)\n        );\n    }\n\n    function () public {\n\n    }\n}",
  "sourcePath": "/Users/llukac/Development/ethereum-projects/coinbet/contracts/Coinbet.sol",
  "compiler": {
    "name": "solc",
    "version": "0.4.19+commit.c4cbbb05.Emscripten.clang"
  },
  "schemaVersion": "2.0.0",
  "updatedAt": "2018-03-21T16:55:39.986Z"
}