{
  "contractName": "Coinbet",
  "abi": [
    {
      "constant": true,
      "inputs": [
        {
          "name": "",
          "type": "address"
        },
        {
          "name": "",
          "type": "uint256"
        }
      ],
      "name": "roundsBetsByUser",
      "outputs": [
        {
          "name": "user",
          "type": "address"
        },
        {
          "name": "predictedPriceDollarCents",
          "type": "uint32"
        },
        {
          "name": "timestamp",
          "type": "uint256"
        }
      ],
      "payable": false,
      "stateMutability": "view",
      "type": "function"
    },
    {
      "constant": true,
      "inputs": [
        {
          "name": "",
          "type": "uint256"
        }
      ],
      "name": "betRounds",
      "outputs": [
        {
          "name": "startTimestamp",
          "type": "uint256"
        },
        {
          "name": "endTimestamp",
          "type": "uint256"
        },
        {
          "name": "resolutionTimestamp",
          "type": "uint256"
        },
        {
          "name": "betAmount",
          "type": "uint256"
        },
        {
          "name": "coin",
          "type": "uint8"
        },
        {
          "name": "organizer",
          "type": "address"
        },
        {
          "name": "isOpen",
          "type": "bool"
        }
      ],
      "payable": false,
      "stateMutability": "view",
      "type": "function"
    },
    {
      "constant": true,
      "inputs": [
        {
          "name": "",
          "type": "uint256"
        }
      ],
      "name": "betRoundsIds",
      "outputs": [
        {
          "name": "",
          "type": "uint256"
        }
      ],
      "payable": false,
      "stateMutability": "view",
      "type": "function"
    },
    {
      "inputs": [],
      "payable": false,
      "stateMutability": "nonpayable",
      "type": "constructor"
    },
    {
      "payable": false,
      "stateMutability": "nonpayable",
      "type": "fallback"
    },
    {
      "anonymous": false,
      "inputs": [
        {
          "indexed": false,
          "name": "roundId",
          "type": "uint256"
        },
        {
          "indexed": false,
          "name": "organizer",
          "type": "address"
        }
      ],
      "name": "BetRoundCreated",
      "type": "event"
    },
    {
      "anonymous": false,
      "inputs": [
        {
          "indexed": false,
          "name": "roundId",
          "type": "uint256"
        },
        {
          "indexed": false,
          "name": "winner",
          "type": "address"
        },
        {
          "indexed": false,
          "name": "winnerReward",
          "type": "uint256"
        }
      ],
      "name": "BetRoundWinner",
      "type": "event"
    },
    {
      "anonymous": false,
      "inputs": [
        {
          "indexed": false,
          "name": "roundId",
          "type": "uint256"
        },
        {
          "indexed": false,
          "name": "user",
          "type": "address"
        },
        {
          "indexed": false,
          "name": "predictedPriceDollarCents",
          "type": "uint32"
        }
      ],
      "name": "BetPlaced",
      "type": "event"
    },
    {
      "constant": false,
      "inputs": [
        {
          "name": "_startTimestamp",
          "type": "uint256"
        },
        {
          "name": "_endTimestamp",
          "type": "uint256"
        },
        {
          "name": "_resolutionTimestamp",
          "type": "uint256"
        },
        {
          "name": "_betAmount",
          "type": "uint256"
        },
        {
          "name": "_coin",
          "type": "uint8"
        }
      ],
      "name": "createBetRound",
      "outputs": [
        {
          "name": "roundId",
          "type": "uint256"
        }
      ],
      "payable": false,
      "stateMutability": "nonpayable",
      "type": "function"
    },
    {
      "constant": false,
      "inputs": [
        {
          "name": "_roundId",
          "type": "uint256"
        },
        {
          "name": "_finalBetRoundCoinPriceDollarCents",
          "type": "uint32"
        }
      ],
      "name": "decideBetRoundWinner",
      "outputs": [],
      "payable": false,
      "stateMutability": "nonpayable",
      "type": "function"
    },
    {
      "constant": false,
      "inputs": [
        {
          "name": "_roundId",
          "type": "uint256"
        },
        {
          "name": "_predictedPriceDollarCents",
          "type": "uint32"
        }
      ],
      "name": "bet",
      "outputs": [
        {
          "name": "success",
          "type": "bool"
        }
      ],
      "payable": true,
      "stateMutability": "payable",
      "type": "function"
    },
    {
      "constant": true,
      "inputs": [],
      "name": "getBalance",
      "outputs": [
        {
          "name": "balance",
          "type": "uint256"
        }
      ],
      "payable": false,
      "stateMutability": "view",
      "type": "function"
    },
    {
      "constant": true,
      "inputs": [],
      "name": "getBetRoundsIds",
      "outputs": [
        {
          "name": "",
          "type": "uint256[]"
        }
      ],
      "payable": false,
      "stateMutability": "view",
      "type": "function"
    },
    {
      "constant": true,
      "inputs": [
        {
          "name": "_roundId",
          "type": "uint256"
        }
      ],
      "name": "getBetRound",
      "outputs": [
        {
          "name": "id",
          "type": "uint256"
        },
        {
          "name": "startTimestamp",
          "type": "uint256"
        },
        {
          "name": "endTimestamp",
          "type": "uint256"
        },
        {
          "name": "resolutionTimestamp",
          "type": "uint256"
        },
        {
          "name": "betAmount",
          "type": "uint256"
        },
        {
          "name": "pricePool",
          "type": "uint256"
        },
        {
          "name": "coin",
          "type": "uint8"
        }
      ],
      "payable": false,
      "stateMutability": "view",
      "type": "function"
    }
  ],
  "bytecode": "0x6060604052341561000f57600080fd5b336000806101000a81548173ffffffffffffffffffffffffffffffffffffffff021916908373ffffffffffffffffffffffffffffffffffffffff1602179055506114bf8061005e6000396000f300606060405260043610610099576000357c0100000000000000000000000000000000000000000000000000000000900463ffffffff16806312065fe0146100a65780634fc18b39146100cf5780635aca74191461013957806378b621ac146101975780637fdb9146146101d6578063a78b697614610272578063b44388b514610311578063bf14ca8414610348578063ea5ac378146103af575b34156100a457600080fd5b005b34156100b157600080fd5b6100b96103e1565b6040518082815260200191505060405180910390f35b34156100da57600080fd5b6100e2610400565b6040518080602001828103825283818151815260200191508051906020019060200280838360005b8381101561012557808201518184015260208101905061010a565b505050509050019250505060405180910390f35b341561014457600080fd5b610181600480803590602001909190803590602001909190803590602001909190803590602001909190803560ff1690602001909190505061045e565b6040518082815260200191505060405180910390f35b6101bc600480803590602001909190803563ffffffff16906020019091905050610708565b604051808215151515815260200191505060405180910390f35b34156101e157600080fd5b610216600480803573ffffffffffffffffffffffffffffffffffffffff16906020019091908035906020019091905050610a48565b604051808473ffffffffffffffffffffffffffffffffffffffff1673ffffffffffffffffffffffffffffffffffffffff1681526020018363ffffffff1663ffffffff168152602001828152602001935050505060405180910390f35b341561027d57600080fd5b6102936004808035906020019091905050610aaf565b604051808881526020018781526020018681526020018581526020018460028111156102bb57fe5b60ff1681526020018373ffffffffffffffffffffffffffffffffffffffff1673ffffffffffffffffffffffffffffffffffffffff1681526020018215151515815260200197505050505050505060405180910390f35b341561031c57600080fd5b6103326004808035906020019091905050610b3a565b6040518082815260200191505060405180910390f35b341561035357600080fd5b6103696004808035906020019091905050610b5e565b604051808881526020018781526020018681526020018581526020018481526020018381526020018260ff1660ff16815260200197505050505050505060405180910390f35b34156103ba57600080fd5b6103df600480803590602001909190803563ffffffff16906020019091905050610bf3565b005b60003073ffffffffffffffffffffffffffffffffffffffff1631905090565b61040861120c565b600280548060200260200160405190810160405280929190818152602001828054801561045457602002820191906000526020600020905b815481526020019060010190808311610440575b5050505050905090565b600080428711151561046f57600080fd5b868611151561047d57600080fd5b62093a8086018511151561049057600080fd5b6000600281111561049d57fe5b60ff168360ff1614806104c15750600160028111156104b857fe5b60ff168360ff16145b806104dc57506002808111156104d357fe5b60ff168360ff16145b15156104e757600080fd5b662386f26fc10000841115156104fc57600080fd5b600180548091906001016105109190611220565b915060018281548110151561052157fe5b90600052602060002090600702019050868160000181905550858160010181905550848160020181905550838160030181905550338160040160016101000a81548173ffffffffffffffffffffffffffffffffffffffff021916908373ffffffffffffffffffffffffffffffffffffffff16021790555060018160060160006101000a81548160ff021916908315150217905550600280548060010182816105c99190611252565b916000526020600020900160008490919091505550600060028111156105eb57fe5b60ff168360ff1614156106235760008160040160006101000a81548160ff0219169083600281111561061957fe5b0217905550610690565b6001600281111561063057fe5b60ff168360ff1614156106685760018160040160006101000a81548160ff0219169083600281111561065e57fe5b021790555061068f565b60028160040160006101000a81548160ff0219169083600281111561068957fe5b02179055505b5b7f3db13eb9733fdd539efb2fe6e94f6cccc187bc952e56fd79ef9d72aea0f09f658233604051808381526020018273ffffffffffffffffffffffffffffffffffffffff1673ffffffffffffffffffffffffffffffffffffffff1681526020019250505060405180910390a18191505095945050505050565b60008060008060018681548110151561071d57fe5b906000526020600020906007020192506000836003015411151561073d57fe5b600115158360060160009054906101000a900460ff16151514151561075e57fe5b3373ffffffffffffffffffffffffffffffffffffffff16600360003373ffffffffffffffffffffffffffffffffffffffff1673ffffffffffffffffffffffffffffffffffffffff168152602001908152602001600020600088815260200190815260200160002060000160009054906101000a900473ffffffffffffffffffffffffffffffffffffffff1673ffffffffffffffffffffffffffffffffffffffff161415151561080957fe5b82600301543414151561081857fe5b82600501805480919060010161082e919061127e565b9150826005018281548110151561084157fe5b90600052602060002090600202019050338160000160006101000a81548173ffffffffffffffffffffffffffffffffffffffff021916908373ffffffffffffffffffffffffffffffffffffffff160217905550848160000160146101000a81548163ffffffff021916908363ffffffff16021790555042816001018190555080600360003373ffffffffffffffffffffffffffffffffffffffff1673ffffffffffffffffffffffffffffffffffffffff16815260200190815260200160002060008881526020019081526020016000206000820160009054906101000a900473ffffffffffffffffffffffffffffffffffffffff168160000160006101000a81548173ffffffffffffffffffffffffffffffffffffffff021916908373ffffffffffffffffffffffffffffffffffffffff1602179055506000820160149054906101000a900463ffffffff168160000160146101000a81548163ffffffff021916908363ffffffff160217905550600182015481600101559050507fbc6f1f1e8f09c006b7ddc81daa122649b4f9271253590c6e129a97830c1899f9863387604051808481526020018373ffffffffffffffffffffffffffffffffffffffff1673ffffffffffffffffffffffffffffffffffffffff1681526020018263ffffffff1663ffffffff168152602001935050505060405180910390a16001935050505092915050565b6003602052816000526040600020602052806000526040600020600091509150508060000160009054906101000a900473ffffffffffffffffffffffffffffffffffffffff16908060000160149054906101000a900463ffffffff16908060010154905083565b600181815481101515610abe57fe5b90600052602060002090600702016000915090508060000154908060010154908060020154908060030154908060040160009054906101000a900460ff16908060040160019054906101000a900473ffffffffffffffffffffffffffffffffffffffff16908060060160009054906101000a900460ff16905087565b600281815481101515610b4957fe5b90600052602060002090016000915090505481565b600080600080600080600080600189815481101515610b7957fe5b9060005260206000209060070201905060008160030154111515610b9957fe5b88816000015482600101548360020154846003015485600301548660050180549050028660040160009054906101000a900460ff166002811115610bd957fe5b975097509750975097509750975050919395979092949650565b610bfb6112b0565b6000610c0561131f565b600080600080600080600080600060018e815481101515610c2257fe5b90600052602060002090600702016101006040519081016040529081600082015481526020016001820154815260200160028201548152602001600382015481526020016004820160009054906101000a900460ff166002811115610c8357fe5b6002811115610c8e57fe5b81526020016004820160019054906101000a900473ffffffffffffffffffffffffffffffffffffffff1673ffffffffffffffffffffffffffffffffffffffff1673ffffffffffffffffffffffffffffffffffffffff16815260200160058201805480602002602001604051908101604052809291908181526020016000905b82821015610dc65783829060005260206000209060020201606060405190810160405290816000820160009054906101000a900473ffffffffffffffffffffffffffffffffffffffff1673ffffffffffffffffffffffffffffffffffffffff1673ffffffffffffffffffffffffffffffffffffffff1681526020016000820160149054906101000a900463ffffffff1663ffffffff1663ffffffff16815260200160018201548152505081526020019060010190610d0d565b5050505081526020016006820160009054906101000a900460ff1615151515815250509b5060008c60600151111515610dfb57fe5b8b6040015142111515610e0a57fe5b600115158c60e001511515141515610e1e57fe5b6000809054906101000a900473ffffffffffffffffffffffffffffffffffffffff1673ffffffffffffffffffffffffffffffffffffffff163373ffffffffffffffffffffffffffffffffffffffff16141515610e7657fe5b600060018f815481101515610e8757fe5b9060005260206000209060070201600501805490501415610ee057600060018f815481101515610eb357fe5b906000526020600020906007020160060160006101000a81548160ff0219169083151502179055506111fc565b63ffffffff9a508b60c0015151604051805910610efa5750595b9080825280602002602001820160405250995060009850600097505b8b60c0015151881015611044578b60c0015188815181101515610f3557fe5b90602001906020020151602001519650600095508c63ffffffff168763ffffffff161115610f67578c87039550610f6d565b868d0395505b8a63ffffffff168663ffffffff161015610fac578b60c0015151604051805910610f945750595b90808252806020026020018201604052509950600098505b8a63ffffffff168663ffffffff1611151561103757859a508b60c0015188815181101515610fd657fe5b90602001906020020151600001518a89815181101515610ff257fe5b9060200190602002019073ffffffffffffffffffffffffffffffffffffffff16908173ffffffffffffffffffffffffffffffffffffffff168152505088806001019950505b8780600101985050610f16565b8b606001518c60c001515102945060648581151561105e57fe5b0493508385039250888381151561107157fe5b049150600060018f81548110151561108557fe5b906000526020600020906007020160060160006101000a81548160ff021916908315150217905550600090505b89518110156111fb57600073ffffffffffffffffffffffffffffffffffffffff168a828151811015156110e157fe5b9060200190602002015173ffffffffffffffffffffffffffffffffffffffff16141561110c576111ee565b898181518110151561111a57fe5b9060200190602002015173ffffffffffffffffffffffffffffffffffffffff166108fc839081150290604051600060405180830381858888f19350505050151561116357600080fd5b7f7e37b2850b3b7b353a2b70b41c5244cdf7b46f710c0748f9d9dacbd63251383b8e8b8381518110151561119357fe5b9060200190602002015184604051808481526020018373ffffffffffffffffffffffffffffffffffffffff1673ffffffffffffffffffffffffffffffffffffffff168152602001828152602001935050505060405180910390a15b80806001019150506110b2565b5b5050505050505050505050505050565b602060405190810160405280600081525090565b81548183558181151161124d5760070281600702836000526020600020918201910161124c9190611333565b5b505050565b8154818355818115116112795781836000526020600020918201910161127891906113d1565b5b505050565b8154818355818115116112ab576002028160020283600052602060002091820191016112aa91906113f6565b5b505050565b6101006040519081016040528060008152602001600081526020016000815260200160008152602001600060028111156112e657fe5b8152602001600073ffffffffffffffffffffffffffffffffffffffff16815260200161131061145b565b81526020016000151581525090565b602060405190810160405280600081525090565b6113ce91905b808211156113ca576000808201600090556001820160009055600282016000905560038201600090556004820160006101000a81549060ff02191690556004820160016101000a81549073ffffffffffffffffffffffffffffffffffffffff02191690556005820160006113ad919061146f565b6006820160006101000a81549060ff021916905550600701611339565b5090565b90565b6113f391905b808211156113ef5760008160009055506001016113d7565b5090565b90565b61145891905b8082111561145457600080820160006101000a81549073ffffffffffffffffffffffffffffffffffffffff02191690556000820160146101000a81549063ffffffff02191690556001820160009055506002016113fc565b5090565b90565b602060405190810160405280600081525090565b508054600082556002029060005260206000209081019061149091906113f6565b505600a165627a7a7230582007953b3cf4f7cb26a71efab84c5732f149df467cbd1b8ca2d31bf242154ed51e0029",
  "source": "pragma solidity ^0.4.19;\n\ncontract Coinbet {\n    /**\n     * Do NOT shuffle these values as businest logic is based on their order.\n     *\n     * BTC uint value is 0\n     * ETH uint value is 1\n     * XRP uint value is 2\n     */\n    enum Coin {BTC, ETH, XRP}\n\n    struct Bet {\n        /**\n         * The address of the user betting.\n         */\n        address user;\n\n        /**\n         * The user's predicted coin's price defined in dollar $ cents.\n         */\n        uint32 predictedPriceDollarCents;\n\n        /**\n         * Timestamp of the bet.\n         */\n        uint timestamp;\n    }\n\n    struct BetRound {\n        /**\n         * Defines when the betting period will start.\n         */\n        uint startTimestamp;\n\n        /**\n         * Defines until when will be possible to place the last bet.\n         */\n        uint endTimestamp;\n\n        /**\n         * Defines the time the smart contract should decide the winner based\n         * on the closest bet.\n         */\n        uint resolutionTimestamp;\n\n        /**\n         * Defines the bet amount in Wei necessary to participate.\n         */\n        uint betAmount;\n\n        /**\n         * Defines the coin of which value the participants will be betting on.\n         */\n        Coin coin;\n\n        address organizer;\n\n        Bet[] bets;\n\n        /**\n         * Defines whenever the BetRound is still in progress, open for bets.\n         */\n        bool isOpen;\n    }\n\n    address owner;\n    BetRound[] public betRounds;\n    uint[] public betRoundsIds;\n\n    /**\n     * Pointer between an address and rounds bets.\n     *\n     * An address can have only 1 bet per round.\n     */\n    mapping(address => mapping(uint => Bet)) public roundsBetsByUser;\n\n    event BetRoundCreated(uint roundId, address organizer);\n    event BetRoundWinner(uint roundId, address winner, uint winnerReward);\n    event BetPlaced(uint roundId, address user, uint32 predictedPriceDollarCents);\n\n    function Coinbet() public {\n        owner = msg.sender;\n    }\n\n    function createBetRound(\n        uint _startTimestamp,\n        uint _endTimestamp,\n        uint _resolutionTimestamp,\n        uint _betAmount,\n        uint8 _coin\n    ) public returns (uint roundId) {\n        // Validate betting range\n        require(_startTimestamp > now);\n        require(_endTimestamp > _startTimestamp);\n        // Betting period must end at least 7 days before the winner resolution\n        // as it doesn't make sense to do ad-hoc bets as the last better has the\n        // highest chance of guessing the price\n        require(_resolutionTimestamp > _endTimestamp + 7 days);\n        require(_coin == uint8(Coin.BTC) || _coin == uint8(Coin.ETH) || _coin == uint8(Coin.XRP));\n        // Buy in must be higher than 0.01 ETH in Wei\n        require(_betAmount > 10000000000000000);\n\n        roundId = betRounds.length++;\n        BetRound storage round = betRounds[roundId];\n        round.startTimestamp = _startTimestamp;\n        round.endTimestamp = _endTimestamp;\n        round.resolutionTimestamp = _resolutionTimestamp;\n        round.betAmount = _betAmount;\n        round.organizer = msg.sender;\n        round.isOpen = true;\n\n        betRoundsIds.push(roundId);\n\n        if (_coin == uint8(Coin.BTC)) {\n            round.coin = Coin.BTC;\n        } else if (_coin == uint8(Coin.ETH)) {\n            round.coin = Coin.ETH;\n        } else {\n            round.coin = Coin.XRP;\n        }\n\n        BetRoundCreated(roundId, msg.sender);\n\n        return roundId;\n    }\n\n    /**\n     * Currently only the contract owner can close the BetRound and decide\n     * the winner but that's not really in a \"blockchain spirit\" of doing things.\n     *\n     * A more advanced security alternative should be implemented where a system\n     * can close the bet round automatically and take the price directly\n     * from one of the exchanges.\n     */\n    function decideBetRoundWinner(\n        uint _roundId,\n        uint32 _finalBetRoundCoinPriceDollarCents\n    ) public {\n        BetRound memory betRound = betRounds[_roundId];\n\n        // BetRound was not found as the betAmount must be set and be greater than 0\n        assert(betRound.betAmount > 0);\n        // Is it already possible to finalize the BetRound?\n        assert(now > betRound.resolutionTimestamp);\n        // BetRound must be open\n        assert(betRound.isOpen == true);\n        // Only contract owner can choose a winner for now @todo\n        assert(msg.sender == owner);\n        // There were no bets, closing BetRound without choosing the winner!\n        if (betRounds[_roundId].bets.length == 0) {\n            betRounds[_roundId].isOpen = false;\n\n            return;\n        }\n\n        uint32 closestBetPrice = 2 ** 32 - 1;\n        address[] memory winners = new address[](betRound.bets.length);\n        uint winnersCount = 0;\n\n        for (uint i = 0; i < betRound.bets.length; i++) {\n            uint32 betPrice = betRound.bets[i].predictedPriceDollarCents;\n            uint32 betPriceDiff = 0;\n\n            if (betPrice > _finalBetRoundCoinPriceDollarCents) {\n                betPriceDiff = betPrice - _finalBetRoundCoinPriceDollarCents;\n            } else {\n                betPriceDiff = _finalBetRoundCoinPriceDollarCents - betPrice;\n            }\n\n            if (betPriceDiff < closestBetPrice) {\n                // We have a new winner, reset the old array of winners.\n                //\n                // This is done because maybe two people bet the same price and in\n                // such a case we want to add the current bet.user to the list instead\n                // of resetting it.\n                winners = new address[](betRound.bets.length);\n                winnersCount = 0;\n            }\n\n            if (betPriceDiff <= closestBetPrice) {\n                closestBetPrice = betPriceDiff;\n                winners[i] = betRound.bets[i].user;\n                winnersCount++;\n            }\n        }\n\n        uint betRoundPricePool = betRound.bets.length * betRound.betAmount;\n        // 1% fee goes to the BetRound organizer (contract owner)\n        uint betRoundOrganizerFee = betRoundPricePool / 100;\n        uint betRoundPricePoolAfterFee = betRoundPricePool - betRoundOrganizerFee;\n        uint userReward = betRoundPricePoolAfterFee / winnersCount;\n\n        // Close the BetRound before transferring the user reward to prevent \"re-entrancy\"\n        betRounds[_roundId].isOpen = false;\n\n        // Transfer user rewards!\n        for (uint wIndex = 0; wIndex < winners.length; wIndex++) {\n            if (winners[wIndex] == address(0)) {\n                continue;\n            }\n\n            winners[wIndex].transfer(userReward);\n\n            BetRoundWinner(_roundId, winners[wIndex], userReward);\n        }\n    }\n\n    function bet(\n        uint _roundId,\n        uint32 _predictedPriceDollarCents\n    ) public payable returns (bool success) {\n        BetRound storage betRound = betRounds[_roundId];\n\n        // BetRound was not found as the betAmount must be set and be greater than 0\n        assert(betRound.betAmount > 0);\n        // BetRound must be open for bets\n        assert(betRound.isOpen == true);\n        // User can only bet once in a round\n        assert(roundsBetsByUser[msg.sender][_roundId].user != msg.sender);\n        // User must send the required betting round buy in\n        assert(msg.value == betRound.betAmount);\n\n        uint myBetId = betRound.bets.length++;\n        Bet storage myBed = betRound.bets[myBetId];\n        myBed.user = msg.sender;\n        myBed.predictedPriceDollarCents = _predictedPriceDollarCents;\n        myBed.timestamp = now;\n\n        roundsBetsByUser[msg.sender][_roundId] = myBed;\n\n        BetPlaced(_roundId, msg.sender, _predictedPriceDollarCents);\n\n        return true;\n    }\n\n    function getBalance() view public returns (uint balance) {\n        return this.balance;\n    }\n\n    function getBetRoundsIds() view public returns (uint[]) {\n        return betRoundsIds;\n    }\n\n    function getBetRound(uint _roundId) view public returns (\n        uint id,\n        uint startTimestamp,\n        uint endTimestamp,\n        uint resolutionTimestamp,\n        uint betAmount,\n        uint pricePool,\n        uint8 coin\n    ) {\n        BetRound storage betRound = betRounds[_roundId];\n\n        // BetRound was not found as the betAmount must be set and be greater than 0\n        assert(betRound.betAmount > 0);\n\n        return (\n            _roundId,\n            betRound.startTimestamp,\n            betRound.endTimestamp,\n            betRound.resolutionTimestamp,\n            betRound.betAmount,\n            betRound.bets.length * betRound.betAmount,\n            uint8(betRound.coin)\n        );\n    }\n\n    function () public {\n\n    }\n}",
  "sourcePath": "/Users/llukac/Development/ethereum-projects/coinbet/contracts/Coinbet.sol",
  "compiler": {
    "name": "solc",
    "version": "0.4.19+commit.c4cbbb05.Emscripten.clang"
  },
  "schemaVersion": "2.0.0",
  "updatedAt": "2018-03-22T09:48:17.099Z"
}