{
  "contractName": "Coinbet",
  "abi": [
    {
      "constant": true,
      "inputs": [
        {
          "name": "",
          "type": "address"
        },
        {
          "name": "",
          "type": "uint256"
        }
      ],
      "name": "roundsBetsByUser",
      "outputs": [
        {
          "name": "",
          "type": "uint256"
        }
      ],
      "payable": false,
      "stateMutability": "view",
      "type": "function"
    },
    {
      "constant": true,
      "inputs": [
        {
          "name": "",
          "type": "uint256"
        }
      ],
      "name": "rounds",
      "outputs": [
        {
          "name": "startTimestamp",
          "type": "uint256"
        },
        {
          "name": "endTimestamp",
          "type": "uint256"
        },
        {
          "name": "resolutionTimestamp",
          "type": "uint256"
        },
        {
          "name": "betAmount",
          "type": "uint256"
        },
        {
          "name": "coin",
          "type": "uint8"
        },
        {
          "name": "organizer",
          "type": "address"
        }
      ],
      "payable": false,
      "stateMutability": "view",
      "type": "function"
    },
    {
      "inputs": [],
      "payable": false,
      "stateMutability": "nonpayable",
      "type": "constructor"
    },
    {
      "anonymous": false,
      "inputs": [
        {
          "indexed": false,
          "name": "roundId",
          "type": "uint256"
        },
        {
          "indexed": false,
          "name": "organizer",
          "type": "address"
        }
      ],
      "name": "BetRoundCreated",
      "type": "event"
    },
    {
      "anonymous": false,
      "inputs": [
        {
          "indexed": false,
          "name": "roundId",
          "type": "uint256"
        },
        {
          "indexed": false,
          "name": "user",
          "type": "address"
        },
        {
          "indexed": false,
          "name": "predictedPriceCents",
          "type": "uint32"
        }
      ],
      "name": "BetPlaced",
      "type": "event"
    },
    {
      "constant": false,
      "inputs": [
        {
          "name": "_startTimestamp",
          "type": "uint256"
        },
        {
          "name": "_endTimestamp",
          "type": "uint256"
        },
        {
          "name": "_resolutionTimestamp",
          "type": "uint256"
        },
        {
          "name": "_betAmount",
          "type": "uint256"
        },
        {
          "name": "_coin",
          "type": "uint8"
        }
      ],
      "name": "createBetRound",
      "outputs": [
        {
          "name": "roundId",
          "type": "uint256"
        }
      ],
      "payable": false,
      "stateMutability": "nonpayable",
      "type": "function"
    },
    {
      "constant": false,
      "inputs": [
        {
          "name": "_roundId",
          "type": "uint256"
        },
        {
          "name": "_predictedPriceCents",
          "type": "uint32"
        }
      ],
      "name": "bet",
      "outputs": [
        {
          "name": "success",
          "type": "bool"
        }
      ],
      "payable": true,
      "stateMutability": "payable",
      "type": "function"
    }
  ],
  "bytecode": "0x6060604052341561000f57600080fd5b336000806101000a81548173ffffffffffffffffffffffffffffffffffffffff021916908373ffffffffffffffffffffffffffffffffffffffff1602179055506108a68061005e6000396000f300606060405260043610610062576000357c0100000000000000000000000000000000000000000000000000000000900463ffffffff1680635aca74191461006757806378b621ac146100c55780637fdb9146146101045780638c65c81f1461015a575b600080fd5b341561007257600080fd5b6100af600480803590602001909190803590602001909190803590602001909190803590602001909190803560ff169060200190919050506101ee565b6040518082815260200191505060405180910390f35b6100ea600480803590602001909190803563ffffffff1690602001909190505061044c565b604051808215151515815260200191505060405180910390f35b341561010f57600080fd5b610144600480803573ffffffffffffffffffffffffffffffffffffffff16906020019091908035906020019091905050610666565b6040518082815260200191505060405180910390f35b341561016557600080fd5b61017b600480803590602001909190505061068b565b604051808781526020018681526020018581526020018481526020018360028111156101a357fe5b60ff1681526020018273ffffffffffffffffffffffffffffffffffffffff1673ffffffffffffffffffffffffffffffffffffffff168152602001965050505050505060405180910390f35b60008042871115156101ff57600080fd5b868611151561020d57600080fd5b62093a8086018511151561022057600080fd5b6000600281111561022d57fe5b60ff168360ff16148061025157506001600281111561024857fe5b60ff168360ff16145b8061026c575060028081111561026357fe5b60ff168360ff16145b151561027757600080fd5b60008411151561028657600080fd5b6001805480919060010161029a9190610703565b91506001828154811015156102ab57fe5b90600052602060002090600602019050868160000181905550858160010181905550848160020181905550838160030181905550338160040160016101000a81548173ffffffffffffffffffffffffffffffffffffffff021916908373ffffffffffffffffffffffffffffffffffffffff1602179055506000600281111561032f57fe5b60ff168360ff1614156103675760008160040160006101000a81548160ff0219169083600281111561035d57fe5b02179055506103d4565b6001600281111561037457fe5b60ff168360ff1614156103ac5760018160040160006101000a81548160ff021916908360028111156103a257fe5b02179055506103d3565b60028160040160006101000a81548160ff021916908360028111156103cd57fe5b02179055505b5b7f3db13eb9733fdd539efb2fe6e94f6cccc187bc952e56fd79ef9d72aea0f09f658233604051808381526020018273ffffffffffffffffffffffffffffffffffffffff1673ffffffffffffffffffffffffffffffffffffffff1681526020019250505060405180910390a18191505095945050505050565b60008060008060018681548110151561046157fe5b906000526020600020906006020192506000836003015411151561048157fe5b6000600260003373ffffffffffffffffffffffffffffffffffffffff1673ffffffffffffffffffffffffffffffffffffffff1681526020019081526020016000206000888152602001908152602001600020541415156104dd57fe5b8260050180548091906001016104f39190610735565b9150826005018281548110151561050657fe5b90600052602060002090600202019050338160000160006101000a81548173ffffffffffffffffffffffffffffffffffffffff021916908373ffffffffffffffffffffffffffffffffffffffff160217905550848160000160146101000a81548163ffffffff021916908363ffffffff16021790555042816001018190555081600260003373ffffffffffffffffffffffffffffffffffffffff1673ffffffffffffffffffffffffffffffffffffffff1681526020019081526020016000206000888152602001908152602001600020819055507fbc6f1f1e8f09c006b7ddc81daa122649b4f9271253590c6e129a97830c1899f9863387604051808481526020018373ffffffffffffffffffffffffffffffffffffffff1673ffffffffffffffffffffffffffffffffffffffff1681526020018263ffffffff1663ffffffff168152602001935050505060405180910390a16001935050505092915050565b6002602052816000526040600020602052806000526040600020600091509150505481565b60018181548110151561069a57fe5b90600052602060002090600602016000915090508060000154908060010154908060020154908060030154908060040160009054906101000a900460ff16908060040160019054906101000a900473ffffffffffffffffffffffffffffffffffffffff16905086565b8154818355818115116107305760060281600602836000526020600020918201910161072f9190610767565b5b505050565b8154818355818115116107625760020281600202836000526020600020918201910161076191906107f1565b5b505050565b6107ee91905b808211156107ea576000808201600090556001820160009055600282016000905560038201600090556004820160006101000a81549060ff02191690556004820160016101000a81549073ffffffffffffffffffffffffffffffffffffffff02191690556005820160006107e19190610856565b5060060161076d565b5090565b90565b61085391905b8082111561084f57600080820160006101000a81549073ffffffffffffffffffffffffffffffffffffffff02191690556000820160146101000a81549063ffffffff02191690556001820160009055506002016107f7565b5090565b90565b508054600082556002029060005260206000209081019061087791906107f1565b505600a165627a7a723058209be6a11bc88c14eaf890c619e75dc97ad614b6472fd2048f31d01e80c5caf3360029",
  "source": "pragma solidity ^0.4.19;\n\ncontract Coinbet {\n    /**\n     * Do NOT shuffle these values as businest logic is based on their order.\n     *\n     * BTC uint value is 0\n     * ETH uint value is 1\n     * XRP uint value is 2\n     */\n    enum Coin {BTC, ETH, XRP}\n\n    struct Bet {\n        /**\n         * The address of the user betting.\n         */\n        address user;\n\n        /**\n         * The user's predicted coin's price defined in cents.\n         */\n        uint32 predictedPriceCents;\n\n        /**\n         * Timestamp of the bet.\n         */\n        uint timestamp;\n    }\n\n    struct BetRound {\n        /**\n         * Defines when the betting period will start.\n         */\n        uint startTimestamp;\n\n        /**\n         * Defines until when will be possible to place the last bet.\n         */\n        uint endTimestamp;\n\n        /**\n         * Defines the time the smart contract should decide the winner based\n         * on the closest bet.\n         */\n        uint resolutionTimestamp;\n\n        /**\n         * Defines the bet amount in Wei necessary to participate.\n         */\n        uint betAmount;\n\n        /**\n         * Defines the coin of which value the participants will be betting on.\n         */\n        Coin coin;\n\n        address organizer;\n\n        Bet[] bets;\n    }\n\n    address owner;\n    BetRound[] public rounds;\n\n    /**\n     * Pointer between an address and rounds bets.\n     *\n     * An address can have only 1 bet per round.\n     */\n    mapping(address => mapping(uint => uint)) public roundsBetsByUser;\n\n    event BetRoundCreated(uint roundId, address organizer);\n    event BetPlaced(uint roundId, address user, uint32 predictedPriceCents);\n\n    function Coinbet() {\n        owner = msg.sender;\n    }\n\n    function createBetRound(\n        uint _startTimestamp,\n        uint _endTimestamp,\n        uint _resolutionTimestamp,\n        uint _betAmount,\n        uint8 _coin\n    ) public returns (uint roundId) {\n        // Validate betting range\n        require(_startTimestamp > now);\n        require(_endTimestamp > _startTimestamp);\n        // Betting period must end at least 7 days before the winner resolution\n        // as it doesn't make sense to do ad-hoc bets as the last better has the\n        // highest chance of guessing the price\n        require(_resolutionTimestamp > _endTimestamp + 7 days);\n        require(_coin == uint8(Coin.BTC) || _coin == uint8(Coin.ETH) || _coin == uint8(Coin.XRP));\n        require(_betAmount > 0);\n\n        roundId = rounds.length++;\n        BetRound storage round = rounds[roundId];\n        round.startTimestamp = _startTimestamp;\n        round.endTimestamp = _endTimestamp;\n        round.resolutionTimestamp = _resolutionTimestamp;\n        round.betAmount = _betAmount;\n        round.organizer = msg.sender;\n\n        if (_coin == uint8(Coin.BTC)) {\n            round.coin = Coin.BTC;\n        } else if (_coin == uint8(Coin.ETH)) {\n            round.coin = Coin.ETH;\n        } else {\n            round.coin = Coin.XRP;\n        }\n\n        BetRoundCreated(roundId, msg.sender);\n\n        return roundId;\n    }\n\n    function bet(uint _roundId, uint32 _predictedPriceCents) public payable returns (bool success) {\n        BetRound storage betRound = rounds[_roundId];\n\n        // BetRound was not found as the betAmount must be set and be greater than 0\n        assert(betRound.betAmount > 0);\n        // User can only bet once in a round\n        assert(roundsBetsByUser[msg.sender][_roundId] == 0);\n\n        uint myBetId = betRound.bets.length++;\n        Bet storage myBed = betRound.bets[myBetId];\n        myBed.user = msg.sender;\n        myBed.predictedPriceCents = _predictedPriceCents;\n        myBed.timestamp = now;\n\n        roundsBetsByUser[msg.sender][_roundId] = myBetId;\n\n        BetPlaced(_roundId, msg.sender, _predictedPriceCents);\n\n        return true;\n    }\n}",
  "sourcePath": "/Users/llukac/Development/ethereum-projects/coinbet/contracts/Coinbet.sol",
  "compiler": {
    "name": "solc",
    "version": "0.4.19+commit.c4cbbb05.Emscripten.clang"
  },
  "schemaVersion": "2.0.0",
  "updatedAt": "2018-03-13T13:56:43.223Z"
}